:020000040000FA
:10100000B9EF08F0E950036E9290090E046ED89083
:1010100008D80332042EFCD7D88003D8D880B6EF86
:1010200008F0D8B003D00000808002D0809000D0BB
:10103000000E026E670E4EEF08F0199E0A50D8B4EB
:10104000198E040E096E063805D8065003D80538E7
:1010500001D805500F0BF60FD8B0070F0A0F00D0BC
:10106000016E094E199E0A5003E0095CD8B01200C7
:101070000150D8A4199E19BE1200300FB0EF08F02D
:10108000046A036EE86A0306045AD8A0B6EF08F0B3
:10109000030E026EE70E02D8F5D7026AFE0F016E4C
:1010A0000400E86A025AD8A01200010600D000D05D
:1010B000F7D7026A046A036E030E05D0026A046A57
:1010C000036E060E00D0096E0450025C02E103506C
:1010D000015C040ED8B0010ED8B4020E0914D8A4D5
:1010E000FF0EB6EF08F0E866FF0E0114D8A4FF0E5D
:1010F000B6EF08F0066A056A100E076E0234053670
:1011000006360350055E0450065A05E203500526D4
:1011100004500622D89001360236072EEFD7015030
:10112000B6EF08F003500702F3CF05F0F4CF06F056
:1011300004500802F3CF01F0F4CF02F00702F3509D
:101140000626F4500122E86A022203500802F350F6
:101150000626F4500122E86A02220550B6EF08F094
:10116000E96EFB6A1250FA6E1150F96E000104002C
:1011700012006AEF0DF06A6A686A9F0E6B6EFB0ED2
:10118000696E6E6A2FEE71F0010EDE6AE82EFDD7F1
:10119000160E706E07D06896000000000000000078
:1011A0000000000068B6F7D70401236B246B1D6BA9
:1011B0001E6B256B6D98186B000E176F12000401E3
:1011C000000E17630AD06D6A696A6D866DA6FDD739
:1011D0000401010E176F140E6F6E010E176309D014
:1011E0006DBA07D0686A696A698069880401020E6D
:1011F000176F68A402D069B44CD86DB2120068A011
:101200000ED069A00CD0B7DF0401040E176F260EB4
:10121000026F040E036F400E016F8C0E006F68A802
:1012200004D069A802D031D8689868AC04D069AC01
:1012300002D096DB689C68AA02D069BA18D868A266
:1012400004D069A202D08DDB686A0401040E175D28
:101250000DE369A612000401040E226F68A61200B5
:101260006C50206F68961CD8222FF8D7120070A0FF
:101270000AD00401800E006306D0840E046303D0FC
:101280008C0E006F7090689A1200698468986D8265
:1012900065D36D9264DB699468A412006894FCD7EE
:1012A00004012051FD0B000805E100513C0B3408FE
:1012B00006E013D02051FD0B040814E012000401D5
:1012C000000E04BF046F000E1F6F000E1A6F1B6B21
:1012D0001C6B236B54D846DB5CD10401020E1A63ED
:1012E00023D0F5D10401216B04BD2169080E1763D9
:1012F00007D028516E6E0401100ED8B4040E176F7B
:10130000010E1A6311D0660E066F040E076F90D996
:101310000401020E1F6303D0840E046F1200C80E76
:101320002167880E046F12000401020E1A6319D09F
:101330006DA817D0400E016314D000513C0B340847
:1013400010E100BF0ED0260E026F040E036F14EEE4
:1013500066F024EE26F0400EE6CFDEFFE82EFCD746
:101360000CD0000E1A6F400E016F260E026F040E95
:10137000036F8C0E006F000E046F249F1200040197
:101380002651600B000806E1050E276304D0238F69
:10139000080E176F1200060E275D6EE0090E276318
:1013A00001D0C3D1080E27630CD0180E126F040EA3
:1013B000136F000E146F2381010E1B6F1C6B238FA4
:1013C0001200000E276301D0BCD0010E275D22E081
:1013D000030E275D1FE00A0E27630ED0190E126F51
:1013E000040E136F000E146F2A5112272381010E71
:1013F0001B6F1C6B238F12000B0E276307D0238FEC
:1014000024EE19F02A5128C4DBFF1200070E2763CF
:101410001200A9D20401010E286309D026511F0B26
:10142000000805E1238F2569030E2763256B000E55
:101430002863120026511F0B0208FBE12A510F0BF3
:10144000F8E0238F11D8030E276303D0840EDF6EDC
:1014500012001FEE70F02A51E126FE0EE716400E34
:101460002AAFC80EDF6E120024EE00F02A452A359E
:10147000E846E846D92612000401800E26631200D1
:10148000C00E236F010E296311D0A20E126F190E28
:10149000136F000E146F12C4F6FF13C4F7FF14C4C9
:1014A000F8FF0800F5CF1BF41C6B1200020E296335
:1014B00025D0F86AF76A2845E846C60FF66E190E79
:1014C000F722000EF8220900F5CF12F40900F5CF3B
:1014D00013F40800F5CF14F412C4F6FF13C4F7FF99
:1014E00014C4F8FF09000900090009000900F5CF3C
:1014F0001BF409000900F5CF1CF41200030E296348
:101500001ED0F86AF76A2845E8466C0FF66E1A0E88
:10151000F722000EF8220900F5CF12F40900F5CFEA
:1015200013F40800F5CF14F412C4F6FF13C4F7FF48
:1015300014C4F8FF0800F5CF1BF41C6B1200236BDA
:1015400012000401666B676B26511F0B000804E153
:10155000238F2567668310D026511F0B010802E1F7
:10156000238F0AD026511F0B020806E1238F7CDF50
:10157000DF50040B01E0668123AF1200660E126F8C
:10158000040E136F000E146F2381020E1B6F1C6B71
:10159000120004016D9823BF1BD024AF0ED0020EA1
:1015A0001A6F056BC80E046F400E016F660E026F56
:1015B000040E036FC80E006F1200400E016F260E5E
:1015C000026F040E036F8C0E006F840E046F120006
:1015D00024BFF3D726AF1ED01C512D5D04E307E1D5
:1015E0001B512C5D04E22CC41BF42DC41CF420D828
:1015F0000401010E1A6F400E016F260E026F040ED9
:10160000036F800E006F660E066F040E076FC80E24
:10161000046F1200020E1A6F056BC80E046F400EA5
:10162000016F660E026F040E036FC80E006F12008A
:1016300004011B51106F1C51116F000803E11B5175
:10164000400811E00CE3000E1F6303D0010E1F6F72
:101650000AD0010E1F6307D0020E1F6F04D0400E88
:10166000106F000E116F0451FC0B1111046F10511B
:10167000056F1B5F11511C5B24EE66F011511011B8
:1016800025E023B115D012C4F6FF13C4F7FF14C42C
:10169000F8FF0900F5CFDEFF09001007FAE1110796
:1016A000F8E2F6CF12F4F7CF13F4F8CF14F41200E7
:1016B00012C4E1FF13C4E2FFE6CFDEFF1007FCE136
:1016C0001107FAE2E1CF12F4E2CF13F412000401A1
:1016D0000151106F1E6703D01D511061106F105122
:1016E0001D5FD8A01E0714EE66F015C4D9FF16C4FE
:1016F000DAFF105108E0E6CFDEFF1007FCE1D9CF9A
:1017000015F4DACF16F41E511D1109E00401400E44
:10171000016F660E026F040E036F007D1200260E2D
:10172000026F040E036F249F12000401238F2FEE1B
:1017300071F0010EDE6AE82EFDD724EE19F0010EDD
:10174000DE6AE82EFDD72851186F03E1100E176FDF
:101750001200200E176F08D1E66E2FEE70F0E950E0
:10176000D9261051DF6EE944E846E84604EE00F061
:10177000E926020EE1CFEBFF030EE2CFEBFFE550CF
:10178000E92AE7CFEDFFEF9EEF8C1200E66E2FEE19
:1017900070F0E950D9261051DF6EE944E846E8467A
:1017A00004EE04F0E926020EE1CFEBFF030EE2CFD8
:1017B000EBFFEF9EEF8C12000401106F200E175DFF
:1017C000000ED89009E1E944E846E84604EE00F04E
:1017D000E926000ED890EFBE1200020EEBCFD9FF23
:1017E000030EEBCFDAFFEC501061106FFF0EDB50F1
:1017F000ED6E105104E0DECFE6FFE82EFCD7400E80
:10180000EF16EF7C880EEF121051D8801200040101
:10181000106F200E175D000ED89009E1E944E846EC
:10182000E84604EE04F0E926000ED890EFBE120060
:10183000020EEBCFD9FF030EEBCFDAFFFF0EDB502A
:101840001061106FE92A1051ED6ED9E0E6CFDEFF8E
:10185000E82EFCD7D4D7040126511F0B010802E162
:10186000000E2A631200060E27633CD0210E296366
:1018700017D0010E186336D0EE0E126F190E136FCB
:10188000000E146F12C4F6FF13C4F7FF14C4F8FF60
:101890000800F5CF1BF41C6B2391238D238F22D0DE
:1018A000220E29631AD0010E18631CD01C0E126F71
:1018B0001A0E136F000E146FFC0EF66E190EF76EF3
:1018C000000EF86E0900F5CF1BF409000800F5CFF3
:1018D0001CF42391238D238F05D0230E296302D07E
:1018E000236B238F2651600B2008BCE1010E275D7E
:1018F00033E0090E275D31E0020E27630DD0A60EFE
:10190000126F040E136F000E146F010E1B6F1C6B11
:101910002381238D238F12000A0E276305D0236BAA
:10192000238F29C4A6F41200030E27630DD0A70E3F
:10193000126F040E136F000E146F010E1B6F1C6BE1
:10194000236B2381238F12000B0E27631200236B5E
:10195000238F28C4A7F412001200120012001200F4
:101960001200120078D712000401010EE96E1E0E5B
:10197000106F14EEA8F0400EEFDE0401010EE96EC8
:101980001E0E106F14EEE9F0400E00D704016D84B6
:10199000100EDA6ED96AD92EFED7DA2EFCD76D94E6
:1019A0001200120C010C100C010C000C000C000CAD
:1019B000400CD80C040C0C0C000C000C000C010C9E
:1019C000020C030C010CCA190000090C020C290CB2
:1019D000000C010C010C000CC00C320C090C040CA6
:1019E000000C000C020C030C000C000C000C090C89
:1019F000210C110C010C000C010C220C280C000C09
:101A0000070C050C810C030C400C000C0A0C070C95
:101A1000050C010C030C400C000C0A0C060C000C0D
:101A2000FF0C090C000CA10C010C090C010C150C8D
:101A3000800C250C7F0C350C000C450CFF0C750C34
:101A4000080C950C080C810C020C090C020C150CEE
:101A5000800C250C7F0C350C000C450CFF0C750C14
:101A6000080C950C080C910C020CC00C7C1A0000A0
:101A7000841A0000A41A0000C01A0000040C030C11
:101A8000090C040C100C030C680C000C740C000CFA
:101A9000670C000C610C000C6D0C000C650C000C4C
:101AA000730C000C0E0C030C700C000C720C000C70
:101AB000750C000C650C000C620C000C610C000C29
:101AC0000A0C030C310C000C320C000C330C000C13
:101AD000340C000C936A816A926A806A010E046E6B
:101AE000F40E41EC08F0420E03EC08F02D0E03EC6E
:101AF00008F04F0E03EC08F06C0E03EC08F0690ED2
:101B000003EC08F0760E03EC08F0690E03EC08F025
:101B1000610E03EC08F0200E03EC08F0490E03EC14
:101B200008F0440E03EC08F03A0E03EC08F0200E27
:101B300003EC08F0300E03EC08F0310E03EC08F073
:101B40000D0E03EC08F04F0E03EC08F04E0E03EC04
:101B500008F0200E03EC08F0010E046EF40E41ECC8
:101B600008F04F0E03EC08F04E0E03EC08F00D0EDB
:101B700003EC08F0226A246A010E236E010E046E43
:101B8000900E41EC08F081869396C80E40EC08F068
:101B900081969396C80E40EC08F081869396C80E05
:101BA00040EC08F081969396010E046E900E41EC85
:101BB00008F081869396010E046EF40E41EC08F055
:101BC00081969396020E046EBC0E41EC08F081865D
:101BD000939681849394020E046EBC0E41EC08F03F
:101BE000BBEC08F0B6EC08F0819693968194939440
:101BF000010E046EF40E41EC08F081869396818408
:101C00009394010E046EF40E41EC08F0A5EC11F073
:101C100081820A0E40EC08F0A5EC11F081920A0EC8
:101C200040EC08F081820A0E40EC08F081920A0E26
:101C300040EC08F081820A0E40EC08F081920A0E16
:101C400040EC08F0226A0400080E225CD8B040EF95
:101C50000EF02228156E166A16362250280FE96EED
:101C6000000EEA6AEA22EFCF13F01550300FE96E4A
:101C7000000E1620EA6E13C0EFFF222AD8A0E3D789
:101C80002350300FE96E000EEA6AEA22EFCF23F00C
:101C90000400090E235CD8A051EF0EF0080E235E5D
:101CA000F7D728500308D8A4E868FF0A136E295014
:101CB000FF08D8A4E868FF0A156E13C001F015509C
:101CC00073EC08F0156E166E2950FF08D8A4E8686A
:101CD000FF0A176E15501610016E175073EC08F0BE
:101CE000176E186E040017501810D8B47EEF0EF05F
:101CF0008186030E046EE80E41EC08F028500308BC
:101D0000D8A4E868FF0A136E2950FE08D8A4E86832
:101D1000FF0A156E13C001F0155073EC08F0156E34
:101D2000166E2950FE08D8A4E868FF0A176E1550F1
:101D30001610016E175073EC08F0176E186E040041
:101D400017501810D8B4ABEF0EF08196030E046E46
:101D5000E80E41EC08F028C025F0440E03EC08F032
:101D6000610E03EC08F0740E03EC08F06F0E03EC48
:101D700008F0200E03EC08F0550E03EC08F0530EAB
:101D800003EC08F0420E03EC08F0200E03EC08F020
:101D9000480E03EC08F04F0E03EC08F0530E03EC72
:101DA00008F0540E03EC08F0200E03EC08F0720E5D
:101DB00003EC08F0650E03EC08F0630E03EC08F08A
:101DC000690E03EC08F0620E03EC08F0690E03ECF8
:101DD00008F0640E03EC08F06F0E03EC08F02E0E12
:101DE00003EC08F02E0E03EC08F02E0E03EC08F0C6
:101DF000200E03EC08F00D0E03EC08F0226A04003C
:101E0000080E225CD8B01DEF11F022C021F00400B2
:101E100023500108D8A40FEF0FF0EAEC11F00400F2
:101E200023500208D8A417EF0FF009EC12F00400B9
:101E300023500308D8A41FEF0FF028EC12F0040081
:101E400023500408D8A427EF0FF047EC12F0040049
:101E500023500508D8A42FEF0FF066EC12F0040011
:101E600023500608D8A437EF0FF085EC12F00400D9
:101E700023500708D8A43FEF0FF0A4EC12F00400A1
:101E800023500808D8A447EF0FF0C3EC12F00A6AF9
:101E90002250280FE96E000EEA6AEA22EFCF13F013
:101EA00013C005F0066A040E116E100E126E1DECC2
:101EB00008F02D0E03EC08F022500008D8A4E868C2
:101EC000FF0A136E2250280FE96E000EEA6AEA221A
:101ED000EFCF15F015C001F0F00E5EEC08F0156EB6
:101EE00013C001F0155073EC08F0156E166E040067
:101EF00015501610D8B492EF0FF02250280FE96E4B
:101F0000000EEA6AEA22EFCF13F013502724136E73
:101F1000146A14362250280FE96E000EEA6AEA228B
:101F200013C0EFFF22500108D8A4E868FF0A136E1F
:101F30002250280FE96E000EEA6AEA22EFCF15F070
:101F400015C001F0F00E5EEC08F0156E13C001F044
:101F5000155073EC08F0156E166E0400155016102F
:101F6000D8B4C8EF0FF02250280FE96E000EEA6ACD
:101F7000EA22EFCF13F013502724136E146A14369D
:101F80002250280FE96E000EEA6AEA2213C0EFFF22
:101F900022500208D8A4E868FF0A136E2250280FC6
:101FA000E96E000EEA6AEA22EFCF15F015C001F0E3
:101FB0001C0E59EC08F0156E13C001F0155073ECAF
:101FC00008F0156E166E040015501610D8B405EF03
:101FD00010F02250280FE96E000EEA6AEA22EFCFD5
:101FE00013F013C001F0026A27C003F0046A7AEC10
:101FF00008F005C013F006C014F02250280FE96E57
:10200000000EEA6AEA2213C0EFFF22500308D8A4A8
:10201000E868FF0A136E2250280FE96E000EEA6A84
:10202000EA22EFCF15F015C001F0110E5EEC08F0BA
:10203000156E13C001F0155073EC08F0156E166E96
:10204000040015501610D8B43CEF10F02250280FA1
:10205000E96E000EEA6AEA22EFCF13F0135027026E
:10206000F3CF13F0F4CF14F02250280FE96E000ED6
:10207000EA6AEA2213C0EFFF22500408D8A4E868F5
:10208000FF0A136E2250280FE96E000EEA6AEA2258
:10209000EFCF15F015C001F0F00E5EEC08F0156EF4
:1020A00013C001F0155073EC08F0156E166E0400A5
:1020B00015501610D8B472EF10F02250280FE96EA8
:1020C000000EEA6AEA22EFCF13F013502724136EB2
:1020D000146A14362250280FE96E000EEA6AEA22CA
:1020E00013C0EFFF22500508D8A4E868FF0A136E5A
:1020F0002250280FE96E000EEA6AEA22EFCF15F0AF
:1021000015C001F0110E59EC08F0156E13C001F066
:10211000155073EC08F0156E166E0400155016106D
:10212000D8B4A9EF10F02250280FE96E000EEA6A29
:10213000EA22EFCF13F02750135C136E146AD8A075
:1021400014062250280FE96E000EEA6AEA2213C034
:10215000EFFF22500608D8A4E868FF0A136E225049
:10216000280FE96E000EEA6AEA22EFCF15F015C0DB
:1021700001F0110E5EEC08F0156E13C001F0155061
:1021800073EC08F0156E166E040015501610D8B4D6
:10219000E0EF10F02250280FE96E000EEA6AEA2202
:1021A000EFCF13F013502702F3CF13F0F4CF14F056
:1021B0002250280FE96E000EEA6AEA2213C0EFFFF0
:1021C00022500708D8A4E868FF0A136E2250280F8F
:1021D000E96E000EEA6AEA22EFCF15F015C001F0B1
:1021E000F00E5EEC08F0156E13C001F0155073ECA4
:1021F00008F0156E166E040015501610D8B416EFC0
:1022000011F02250280FE96E000EEA6AEA22EFCFA1
:1022100013F013502724136E146A14362250280F1B
:10222000E96E000EEA6AEA2213C0EFFF0A0E40ECE4
:1022300008F0222AD8A0FFEF0EF00D0E03EC08F0F4
:10224000440E03EC08F0610E03EC08F0740E03EC8E
:1022500008F06F0E03EC08F0200E03EC08F0550EAA
:1022600003EC08F0530E03EC08F0420E03EC08F008
:10227000200E03EC08F04C0E03EC08F04F0E03ECBC
:1022800008F0430E03EC08F0410E03EC08F04C0E8E
:1022900003EC08F0200E03EC08F0650E03EC08F0E8
:1022A0006E0E03EC08F0760E03EC08F0690E03ECFA
:1022B00008F0610E03EC08F0640E03EC08F06F0EFA
:1022C00003EC08F02E0E03EC08F02E0E03EC08F0E1
:1022D0002E0E03EC08F0200E03EC08F00D0E03ECBC
:1022E00008F0226A0400080E225CD8B093EF11F0C7
:1022F0000A6A2250280FE96E000EEA6AEA22EFCF3E
:1023000013F013C005F0066A040E116E100E126E63
:102310001DEC08F02D0E03EC08F00A0E40EC08F05E
:10232000222AD8A0DFD70D0E03EC08F00D0E03EC27
:1023300008F081800A0E40EC08F0C8EC11F08190A2
:102340000A0E40EC08F008EF0EF0080E266EDFECE7
:1023500008F0B6EC08F081880A0E40EC08F081988D
:102360000A0E40EC08F0010EE96E10EE28F026503F
:10237000DCEC0BF0B6EC08F0266ED8A0E6D7818A2C
:102380000A0E40EC08F0819A0A0E40EC08F01200A8
:10239000080E266EDFEC08F0B6EC08F0818C0A0E11
:1023A00040EC08F0819C0A0E40EC08F0010EE96E4A
:1023B00010EE28F0265007EC0CF0B6EC08F0D8A090
:1023C000E7D7818E0A0E40EC08F0819E0A0E40ECA1
:1023D00008F012002150F66E0708D8A008EF12F09E
:1023E000F76AF86AD890F636F736000EF626240E0D
:1023F000F722000EF8220800F5CF27F008EF12F0C0
:10240000010C080C030C020C030C030C040C020C52
:1024100012002150F66E0708D8A027EF12F0F76AD5
:10242000F86AD890F636F7363E0EF626240EF722D6
:10243000000EF8220800F5CF27F027EF12F0080C65
:10244000020C050C040C070C040C030C060C120007
:102450002150F66E0708D8A046EF12F0F76AF86A26
:10246000D890F636F7367C0EF626240EF722000EAC
:10247000F8220800F5CF27F046EF12F0030C070C06
:10248000080C070C050C010C020C090C1200215061
:10249000F66E0708D8A065EF12F0F76AF86AD890D0
:1024A000F636F736BA0EF626240EF722000EF8227C
:1024B0000800F5CF27F065EF12F0020C060C070CB0
:1024C000030C010C060C050C010C12002150F66ED9
:1024D0000708D8A084EF12F0F76AF86AD890F636A9
:1024E000F736F80EF626240EF722000EF822080022
:1024F000F5CF27F084EF12F0090C080C010C020C48
:10250000030C050C040C020C12002150F66E070897
:10251000D8A0A3EF12F0F76AF86AD890F636F7362B
:10252000360EF626250EF722000EF8220800F5CF0B
:1025300027F0A3EF12F0080C010C010C040C050CA1
:10254000040C030C060C12002150F66E0708D8A0EC
:10255000C2EF12F0F76AF86AD890F636F736740EC2
:10256000F626250EF722000EF8220800F5CF27F0F8
:10257000C2EF12F0030C020C080C020C050C010C4B
:10258000020C090C12002150F66E0708D8A0E1EFEA
:1025900012F0F76AF86AD890F636F736B20EF626D9
:1025A000250EF722000EF8220800F5CF27F0E1EF04
:1025B00012F0010C020C070C030C050C060C050CA8
:0425C000010C1200F8
:020000040030CA
:08000000E43EFFF3FFF9BBFF32
:00000001FF
